:10000000C5C00000DEC00000DCC00000DAC0000097
:10001000D8C00000D6C00000D4C00000D2C000008C
:10002000D0C00000CEC0000090C20000EDC20000B1
:10003000C8C00000C6C00000C4C00000C2C00000AC
:10004000C0C00000BEC00000BCC00000BAC00000BC
:10005000B8C00000B6C00000B4C00000D1C10000AC
:10006000B0C00000AEC00000ACC00000AAC00000DC
:10007000A8C00000A6C00000A4C00000A2C00000EC
:10008000A0C000009EC000009CC000009AC00000FC
:1000900098C0000096C0000094C0000092C000000C
:1000A00090C000008EC000008CC00000000104055C
:1000B000060725242322212000010000EF00120062
:1000C0000200000101220022000023013F00210064
:1000D0000013010900030000620104010309046622
:1000E000011002030904780112000001C106001288
:1000F00001000200000020C0167C04000101020083
:100100000109022200010100C032090400000103BC
:10011000010100092111010001223F0007058303AD
:1001200008000105010906A10175019508050719D7
:10013000E029E715002501810295017508810395E5
:1001400005750105081901290591029501750391AD
:1001500003950675081500256805071900296881AB
:1001600000C00403090410034D00660067004E0040
:1001700061006D006500000012034B00650079000E
:1001800062006F00610072006400000011241FBE55
:10019000CFEFDAE0DEBFCDBF11E0A0E0B1E0E2EFEB
:1001A000F8E002C005900D92A231B107D9F711E035
:1001B000A2E1B1E001C01D92A532B107E1F730D054
:1001C00096C31ECF95E890937A00982F907290680E
:1001D00090937B008F7190910E01892B80937C000E
:1001E00085EC80937A0080917A0086FDFCCF209187
:1001F000780030917900932F80E030E0282B392B64
:10020000C90108958C3040F4E82FF0E0E455FF4F29
:100210008491D8DF9C0102C020E030E0C90108953C
:100220008F929F92BF92CF92DF92EF92FF920F93A5
:100230001F93DF93CF9300D0CDB7DEB780E88093D4
:10024000610081E0809361001AB88FEF8BB917B815
:1002500080E488B95E9818D12ED18823E9F38FEF16
:1002600099E6A8E181509040A040E1F700C000006D
:1002700014BC83E085BD81E080936E0008E011E04E
:1002800064E0862E61E0962E58E1E52E51E0F52ED1
:1002900040E9C42E41E0D42ED8018C91B3DFF401A3
:1002A0009183808334E6B32ED8018C91ABDFBA946E
:1002B000D9F7F70121917F01D4018D919C9111977C
:1002C000213059F41816190624F4019711969C93BD
:1002D0008E93F401D182C08205C00296D40111969A
:1002E0009C938E930E5F1F4FE2E0F0E08E0E9F1EF8
:1002F000F1E00C301F0781F60FEF8FEF23E0F22EB5
:1003000090EFC92EE9B020E030E011E0D82EDE24D5
:10031000812F8D21C9F0F901EE5EFE4F8081882387
:1003200099F4812F8E2151F4F901E050FF4F808123
:1003300060E029833A83FCD03A812981F894F9015D
:10034000EE5EFE4FF08278942F5F3F4F24303105F0
:1003500011F0110FDDCF8091080154DF4091180199
:100360002091040130910501413029F041E0281726
:10037000390734F004C041E0821793070CF040E0E5
:1003800080910A0149833EDF5091190120910601B5
:10039000309107014981513021F4821793072CF4E1
:1003A00003C0281739070CF44E5F88249924DD24F4
:1003B000D394B42EB0268D2D8B21B9F084010A5E22
:1003C0001E4FD8018C91882381F48D2D842369F0F0
:1003D000F401E45FFE4F808160E04983A9D05E9A1A
:1003E000F894F801C08278944981DD0C0894811C4E
:1003F000911CF2E08F169104F1F6042F8E2D82CF1E
:100400001F920F920FB60F9211242F938F939F93E9
:10041000EF93FF9380E090E0FC01EE5EFE4F2081C1
:10042000222319F0208121502083019684309105E8
:1004300099F780911601882351F08091160181501F
:100440008093160180911601882309F45E988091AB
:100450001701882351F08091170181508093170173
:1004600080911701882309F45E98FF91EF919F9185
:100470008F912F910F900FBE0F901F901895809124
:10048000E80080FFFCCF089581E08093D70080EAE8
:100490008093D80082E189BD09B400FEFDCF80E9D8
:1004A0008093D8001092E000109222018CE080939B
:1004B000E2007894089580912201089580912201AC
:1004C000882391F18FB7F89493E09093E90090918D
:1004D000E4009E5C23E03091E80035FD0EC08FBF44
:1004E00080912201882301F18091E4008917F1F0C5
:1004F0008FB7F8942093E900EECF90911A01909372
:10050000F1001092F100EBE1F1E091919093F10094
:1005100091E0E132F907C9F79AE39093E80010926D
:1005200023018FBF80E008958FEF08958FEF089526
:1005300060931A0180931B01C1DF882329F4109274
:100540001A0110921B01BACF08951F920F920FB695
:100550000F9211242F938F939F93EF93FF9380918A
:10056000E1001092E10083FF0FC01092E90091E0DA
:100570009093EB001092EC0092E29093ED0098E0E3
:100580009093F0001092220182FF34C080912201EA
:10059000882381F120910F01222361F180912401B0
:1005A0008F5F8093240190E083709070009711F525
:1005B00083E08093E9008091E80085FF1BC0809173
:1005C00023018F5F809323018217A1F410922301EE
:1005D00080911A018093F1001092F100EBE1F1E0BB
:1005E00081918093F10081E0E132F807C9F78AE355
:1005F0008093E800FF91EF919F918F912F910F9041
:100600000FBE0F901F9018951F920F920FB60F926A
:100610001124EF92FF920F931F932F933F934F93C9
:100620005F936F937F938F939F93AF93BF93EF935A
:10063000FF93DF93CF930F92CDB7DEB71092E9000F
:100640008091E80083FF38C12091F1003091F100E2
:10065000E090F100FF244091F100942F80E0E82A1F
:10066000F92A0091F10010E04091F100942F80E010
:10067000082B192B6091F100A091F10082EF80937B
:10068000E800363009F059C08FEB90E09C0125500E
:100690003040FC013797459154914E155F05F9F4B0
:1006A000F9014591549140175107C9F42E5F3F4F0E
:1006B000F901859194912E5F3F4FF9012491462FC6
:1006C00050E07A2F60E0462B572B4F3F510519F031
:1006D00010F04FEF50E0421750F4242F08C0079657
:1006E000295F3F4FF0E0803F9F0799F6E5C0AEEFEE
:1006F0004091E80050E0BA016570707061157105B5
:10070000B9F342FDDCC0322F213208F030E2AC01F7
:10071000632F07C0FA014F5F5F4FE491E093F10050
:1007200061506623B9F7830F911D231BA093E80046
:100730002223F1F63032E1F2C2C0353049F48EEFB7
:100740008093E8009CDE8E2D80688093E300B7C024
:10075000393031F5222309F069C0E09222018EEF91
:100760008093E80041E089EE90E04093E900FC01CD
:100770000196E491E093EB00EE2369F09C012F5F7A
:100780003F4FFC0184918093EC00C9010196F9016F
:1007900024912093ED004F5F453039F78EE141C041
:1007A000383039F4203809F041C069DE80912201E7
:1007B00061C03323A9F4298362DE2981223851F4F0
:1007C0000093E9009091EB0081E095FF80E01092AA
:1007D000E90001C080E08093F1001092F10068C050
:1007E000313011F0333011F5223001F5E114F1040C
:1007F000E9F4402F4F77842F81508430B8F48EEF86
:100800008093E8004093E900333009F455C089E152
:100810008093EB0081E090E002C0880F991F4A9519
:10082000E2F78093EA001092EA0049C00115110531
:1008300009F042C0213A09F5313089F420DE809177
:100840001A018093F1001092F100EBE1F1E0819147
:100850008093F10041E0E132F407C9F729C032305A
:1008600021F40DDE80910F0105C0333029F507DE3C
:10087000809110018093F1001BC02132E9F43930DE
:1008800061F48091E80082FFFCCF8091F1008093B9
:1008900021018BEF8093E8000BC03A3029F4F092ED
:1008A0000F011092230104C03B3031F4E09210019B
:1008B0008EEF8093E80003C081E28093EB000F90FD
:1008C000CF91DF91FF91EF91BF91AF919F918F9168
:1008D0007F916F915F914F913F912F911F910F9158
:1008E000FF90EF900F900FBE0F901F901895F89407
:0208F000FFCF38
:1008F200271E1F2004000500000001000405407DA2
:020902000100F2
:00000001FF
